:03000000020DEB03
:0C0DEB00787FE4F6D8FD758120020E32FE
:04086B004101AA009D
:100E7700C3EF9419EE648094805007E4900165F005
:100E87008037C3EF943CEE648094804008900165FE
:100E97007464F08024EF24E7FFEE34FFFE3395E01F
:100EA700FDFCE47B64FAF9F8120388E47B23FAF982
:100EB700F81211B6900165EFF09001AAE0FF240245
:100EC700FDE433FC900165E0FED39DEC6480F8748B
:100ED700809840028017900165E0FE2402FDE4330C
:100EE700FCEFFBC3ED9B7480F86C9850059001AA4A
:0A0EF700EEF09001AAE0FF02117175
:100F01007B02E4FD7F03120D357B017D017F03121E
:100F11000D357B027D027F03120D357B027D037F40
:100F210003120D357B027D047F05120D3512136608
:100F31007D057F0512128C7F607E541209F87F3285
:100F4100121171D2021213021213C9D2ACD2AF7BA9
:100F5100017A01795D1204D3900163EEF0A3EFF001
:100F6100120E77900163E0FEA3E0FF120C3C7F01BB
:070F71007E0012126080D81F
:09086F004601A200000000000097
:1013660043BA8090FEA8743FF053BA7F75DE2F759E
:0C137600BC800000000000000000C3224A
:10132600EF540FFFE5BC54F04FF5BC43BC40000042
:10133600E5BC30E5FB53BCDFAFBDEFFEADBEEDFF58
:011346002284
:0B04D300900165EBF0A3EAF0A3E9F054
:1004DE007F02121326EF2428FFE43EA3F0A3EFF0D1
:1004EE007F03121326A3EEF0A3EFF07F0412132660
:1004FE00EF242DFFE43EA3F0A3EFF0E4900174F09F
:10050E00A3F0900174E0FEA3E0FFC39403EE6480B9
:10051E0094805078EF25E0FFEE33FE74682FF5825D
:10052E0074013EF583E0FEA3E0FF1206A9AC06AD12
:10053E0007900174E0FAA3E0FB25E0FFEA33FE74B6
:10054E006E2FF58274013EF583ECF0A3EDF0EA70A8
:10055E0019EB146013047012746E2FF58274013E41
:10056E00F583E475F02380108011746E2FF582747C
:10057E00013EF583E475F01E120345900175E0040B
:10058E00F07006900174E004F0020510E49001741E
:10059E00F0A3F0900174E0FAA3E0FB25E0FFEA334C
:1005AE00FE746E2FF58274013EF583E0FCA3E0FD30
:1005BE0074A22FF58274013EF583ECF0A3EDF07476
:1005CE00A22FF58274013EF583E0FEA3E0FF7C00CE
:1005DE007DE01202A8AC06AD07EB25E0FBEA33FA8C
:1005EE00746E2BF58274013AF583E0FEA3E0780574
:1005FE00C333CE33CED8F92DEC3EFF3395E0FE74E7
:10060E00A22BF58274013AF583EEF0A3EFF0900180
:10061E0075E025E0FF900174E033FE74A22FF582A1
:10062E0074013EF583E0FCA3E0FD900165E0FBA3C1
:10063E00E0FAA3E0F98F828E83EC8DF012035B90CB
:10064E000175E004F07006900174E004F0900174FE
:10065E00E07004A3E0640360030205A19001A4E02E
:10066E00FEA3E0FF7C007D051202A8AA06AB079050
:10067E0001A2E0FEA3E0FF7D321202A8EF2BFBEEFB
:10068E003AFA9001A6E0FEA3E0FF7D2D1202A8EF3C
:0A069E002BFFEE3AFE7D6412030FFD
:0106A800222F
:1013820043BA8090FEA8743FF053BA7F75DE2F7582
:0B139200BC8F000000000000000022E3
:1010E000E49001A8F0A3F0FBFA1213827F0F121311
:1010F00026E4FC7F0F1213269001A9E02FF0900147
:10110000A8E03EF00CECB408EA9001A8E0FEA3E0F1
:101110007803CEC313CE13D8F9FBAA06E4F9F87FFF
:091120005A7E937D12FC120413A7
:0111290022A3
:04001F0053BC7F222D
:10139D007C007D031202A8EEC313FEEF13FFEF1FB7
:0A13AD0070011E144E60030080F46E
:0113B7002213
:10126000EF1FAA0670011E4A60217C047D74D3ED35
:101270009400EC940040E97B017A00EB1B70011AAA
:0B128000EB4A70F7ED1D70E61C80E3E8
:01128B002240
:100D35007401A805088002C333D8FCFEEDD39407DF
:100D4500400122EB14602E14604B24027070EFB446
:100D55000109EEF452915292020DE9EFB40308EE47
:100D6500F452B152B2807DEFB40508EEF452C95287
:100D7500CA8071C322EFB40106EEF452918046EFAA
:100D8500B40306EEF452B18048EFB40506EEF45212
:100D9500C9804AC322EFB40109EE4291EEF45292A2
:100DA5008042EFB40309EE42B1EEF452B28035EF62
:100DB500B40509EE42C9EEF452CA8028C322EFB445
:100DC5000108EE4291EE4292801AEFB40308EE421A
:100DD500B1EE42B2800EEFB40508EE42C9EE42CA4A
:050DE5008002C322D3CF
:010DEA0022E6
:10109400EF24FB602D2402703FED7006A20292B093
:1010A4008038EDB40106A20292B1802EEDB402069E
:1010B400A20292B28024EDB40306A20292B3801A73
:1010C400D322EDB40406A20292CC800EEDB4050640
:0C10D400A20292CD8004D322D322C322BA
:1008780041019B00410196324201A05460C10042EF
:1008880001970000420199000042019C00004201CA
:030898009E0000BF
:10128C007B01120D35C2CD5389F0438901438E8009
:10129C009001A0E0FEA3E0FF1209F8900196E0FF98
:0A12AC00121171D2A9D2AFC28C2238
:1009F800900196E0FD900177E4F0A3EDF0EF4E70E2
:100A080003FE7F01AB07AA06E4F9F87F407E427D2A
:100A18000FFC1204139001671204C7900177E0FEDF
:100A2800A3E0FFE4FCFD900167E0F8A3E0F9A3E090
:100A3800FAA3E0FB120388E47B64FAF9F8120413C2
:100A480090016B1204C7900177E0FEA3E0FFC37426
:100A5800649FFFE49EFEE4FCFD900167E0F8A3E0DC
:100A6800F9A3E0FAA3E0FB120388E47B64FAF9F83F
:100A780012041390016F1204C790016BE0FCA3E00D
:100A8800FDA3E0FEA3E0FFE41200C67B687A2F799D
:100A9800B9783D120029120104900173EEF0A3EF1A
:100AA800F090016FE0FCA3E0FDA3E0FEA3E0FFE40B
:100AB8001200C67B687A2F79B9783D120029120195
:100AC80004900175EEF0A3EFF0900173E0FEA3E04F
:100AD800FBE4C39BFFE49EFE74019400FDE49400D4
:100AE800FC78081204B3900197EEF0A3EFF09001A0
:100AF80073A3E0FBE4C39BFFE4900199F0A3EFF03C
:100B0800900175E0FEA3E0FBE4C39BFFE49EFE7446
:100B1800019400FDE49400FC78081204B390019C51
:100B2800EEF0A3EFF0900175A3E0FBE4C39BFFE4B4
:070B380090019EF0A3EFF015
:010B3F002293
:10117100900166EFF0D3946440037464F0900166CB
:10118100E0FF900196F0EF7004C2028024900166A6
:10119100E0C39464400EC202121302D2027D037FA7
:1011A100030210949001A0E0FEA3E0FF1209F8D21F
:0511B1000212130222EE
:10130200A2029200300218E490019BF0C2B3A3E063
:10131200A3E0F58C90019EE0A3E0F58AD28C22C274
:041322008CC2B322A4
:03000B0002112AB5
:10112A00C0E0C083C08230003790019BE0701A9003
:10113A000197E0A3E0F58C900199E0A3E0F58A908D
:10114A00019B7401F0D2CD801790019CE0A3E0F5D9
:10115A008C90019EE0A3E0F58A90019BE4F0C2CD59
:07116A00D082D083D0E032F7
:03002300020FEEDB
:100FEE00C0E0C083C082C0D075D000C006C007303C
:100FFE009904C299C20130982FC298900185E004DD
:10100E00540FFF900184E06F601EA3E0FF04F0EF29
:10101E003395E0FE74862FF58274013EF583E599D3
:10102E00F0900185E0540FF0D007D006D0D0D082DA
:05103E00D083D0E03278
:10134700759850E4F589758BE8758DFFD28E538EAD
:0F135700FE438E40900185F0900184F0C2012288
:080003002001FDD2018F9922BA
:10000E00AE07EEB40A057F0D120003AF0612000311
:01001E0022BF
:1013B800900185E0FF900184E06F6003D38001C352
:0113C8002202
:10123200900185E0FF900184E06F601FE0FF04F001
:10124200EF3395E0FE74862FF58274013EF583E05C
:0D125200FD900184E0540FF0AF05227F00F5
:01125F00226C
:10089B0061240000000A000A000B000B000C000C86
:1008AB00000D000E000F00100012001300140015B5
:1008BB00001600180019001A001B001D001E002056
:1008CB0000210023002500270029002B002D002FDD
:1008DB000031003300350037003A003C003F004246
:1008EB0000450048004C004F005200550059005D78
:1008FB00006000640068006C007100750079007E78
:10090B0000830088008C00910095009B00A000A53F
:10091B0000AB00B100B800BF00C400C900CE00D4CA
:10092B0000D900E000E700EF00F701000105010A24
:10093B0001100116011C01260130013C0148015632
:10094B000160016B017701840192019C01A801B444
:10095B0001C001CE01D901E401EF01FC0209021330
:10096B00021E022902350241024B02550260026B44
:10097B000276027F02880292029C02A602A702A8BC
:10098B0002A902AA02AB02AC02AD02AE02AF02B0E8
:10099B0002B102B202B302B402B502B602B702B898
:1009AB0002B902BA02BB02BC02BD02BE02BF02C048
:0809BB0002C102C202C302C422
:0806A900900176EEF0A3EFF0E2
:1006B100C3900001E09FEE6480F8900000E0648048
:1006C1009840057EFF7FEC22900122E0FEA3E0FF2F
:1006D100C3900177E09FEE6480F8900176E064803A
:1006E1009840057E007F7D22E4900178F0A3F07DA3
:1006F10091FC900178E0FEA3E0FFC3ED9FFFEC9E2B
:10070100FED3EF9401EE64809480405CE02DFF9075
:100711000178E03CA2E713FEEF13FF90017AEEF0BF
:10072100A3EFF0E025E0FF90017AE033FE74002FA3
:10073100F58274003EF583E0FEA3E0FF900176E0D0
:10074100FAA3E0FBD3EF9BEA6480F8EE6480989013
:10075100017AE0500DFFA3E0900178CFF0A3EFF014
:100761008090FCA3E0FD808A900178E0FAA3E0FB91
:1007710025E0FFEA33FE74002FF58274003EF58315
:10078100E0FFA3E090017CCFF0A3EFF0ED25E0FFC7
:10079100EC33FE74002FF58274003EF583E0FFA375
:1007A100E090017ECFF0A3EFF0EB24ECFEEA34FF02
:1007B100A3F0A3CEF0ED24ECFFEC34FFFE90017C1E
:1007C100E0FCA3E0FDC390017FE09DFD90017EE090
:1007D1009CFCD3ED9401EC648094805018900181CD
:1007E100E02FFF900180E03EA2E713FEEF13FF90A0
:1007F1000182EE8068900180E0FCA3E0FDC3EF9DE3
:10080100FFEE9CAB07FA3395E0F9F890017CE0FE2E
:10081100A3E0FFC3900177E09FFF900176E09EFE89
:100821003395E0FDFC120388C006C00790017CE00F
:10083100FEA3E0FFC390017FE09FFF90017EE09E59
:10084100AB07FA3395E0F9F8D007D0061211B6904C
:100851000181E02FFF900180E03E900182F0A3EF43
:09086100F0900182E0FEA3E0FF2B
:01086A00226B
:0613D8000000000000000F
:1009C30042015B000041013300602701340000FF56
:1009D3000080FF00FFFF00FF8000FF0080FF00FF9B
:1009E300FF00FFC800FF8000FF4000FF2000FF1052
:0409F30000FF000001
:0A11FA002FF9EA35F0FA12027BFF2C
:101204007E80EE60285F600F43B0020000000000A3
:10121400000053B0FD800C43B00200000053B0FD49
:0D12240000000000000000EEC313FE80D5A6
:01123100229A
:0F13C9007B017D017F03120D3553B0FD021043F0
:1012DD00EFC39405501EEF75F003A42424F9740197
:1012ED0035F0A801FC7D017B017A0179717E007FCB
:0512FD0003120255225E
:0B0F7800900170EBF0A3EAF0A3E9F099
:100F8300C2AFE4A3F0900173E0FFC394055050EFA8
:100F930075F003A4FF900170E0FBA3E0FAA3E090D7
:100FA30000011211FA900170E0FBA3E0FAA3E0F94B
:100FB300A3E075F003A4F58285F08312120090017B
:100FC30073E075F003A4FF900170E0FBA3E0FAA3C4
:100FD300E09000021211FA900173E004F080A6D2AF
:0B0FE300AF53B0FD7F3C7E0002139D69
:1010430078667C017D017BFF7A1379D87E007F036C
:10105300120255E4900165F0900165E0FFC3940529
:101063005026EF75F003A42424F9740135F0A80188
:10107300FC7D017B017A0179667E007F03120255B4
:10108300900165E004F080D07B017A017924020F9E
:0110930078E4
:0912B600F583E0FD900177E0FBF7
:1012BF00AA07C3ED9FFFE49400FEAD037C0012026A
:0E12CF00A8EF7805CEC313CE13D8F92AFF225C
:080B4000900170EEF0A3EFF04C
:100B4800D39414EE64809480500BE4A3F0A3F0A334
:100B580074A0020C34C3900171E09450900170E0CD
:100B680064809480400D90017274FFF0E4A3F0A3B8
:030B7800020C3438
:100B7B00900171E024ECFB900170E034FFFA7C00F3
:100B8B007D05AF03FE12030F900175EFF07C007D26
:100B9B0005AF03AE0212030FA3EDF0E075F020A436
:100BAB00FFAEF07C007D051202BAA3EFF0FB9001C3
:100BBB0075E0FE75F003A42434F582E43401F5836B
:100BCB00E0FFEE75F003A42437F582E43401F583DE
:100BDB00E0FD1212BF900172EFF0900175E0FE750F
:100BEB00F003A42435F582E43401F583E0FFEE75C0
:100BFB00F003A42438F582E434011212B690017389
:100C0B00EFF0900175E0FE75F003A42436F582E455
:100C1B003401F583E0FFEE75F003A42439F582E48B
:100C2B0034011212B6900174EFF07B017A017972E4
:010C3B002296
:080C3C00900165EEF0A3EFF05A
:100C4400786D7C017D017BFF7A1379DB7E007F0365
:100C5400120255900165E0FEA3E0FF120B40786894
:100C64007C017D017E007F03120255900165E0FE48
:100C7400A3E0FFD39414EE64809480500B90016B36
:100C8400E4F0A37402F08024C3EF9450EE648094E3
:100C940080400B90016BE4F0A37482F0800EEF248B
:100CA400EEFFEE34FF90016BF0A3EFF090016BE0E8
:100CB400FEA3E0FF90015CE02FF090015BE03EF0CA
:100CC400C3A3E0942090015BE09403401AA3E024C2
:100CD400E0F090015BE034FCF0900133E004F0E0DC
:100CE400C394054002E4F0E4900167F0900167E0EA
:100CF400FFC394055032900133E0FEEF78717C011C
:100D04007D017B01B506067A01796880047A017950
:100D14006D7E007F03120255900167E0FF1212DD21
:100D2400900167E004F080C47B017A017924020F0A
:010D34007846
:1000260002017AEC5D046005E85904700302017070
:1000360012013B580460F6EC4860F2EC7004FDFED9
:10004600FF22C860DB2481C85009C39860025006AD
:100056000201779850CAF582E9294B4A7005AB82AE
:1000660002016675F0007C1A7880C3EF9BEE9AED6C
:1000760099400DC3EF9BFFEE9AFEED99FDE842F025
:10008600DC23ACF0D0E0FFD0E0FED0E0FDAB822078
:10009600E7101BEB60BAEC2CFCEF33FFEE33FEED02
:1000A60033FD020152E803F830E705C0F075F000B1
:1000B600EF2FFFEE33FEED33FD40B830E7C280AAE6
:1000C60075F020800E75F010800575F0087D007EB5
:1000D600007F003392D530D5031204A5EC334010CF
:1000E600EF33FFEE33FEED33FDEC33FCD5F0ED22BE
:0E00F600E5F0247EA2D513CC92E7CDCEFF22FA
:10010400EDD2E7CD33EC3392D524814006E4FFFEF3
:10011400FDFC22FCE4CFCECDCC24E0501174FF8052
:10012400EDC3CC13CCCD13CDCE13CECF13CF0470EF
:07013400F030D5DE0204A546
:10013B00E9D2E7C933E833F892D5EDD2E7CD33EC0A
:07014B0033FC5002B2D52283
:10015200EC30E7100FBF000C0EBE00080DBD00040E
:100162000BEB6014A2D5EB13FCED92E7FD2274FFBA
:10017200FCFDFEFF22E480F8A2D574FF13FC7D8013
:03018200E480EF27
:100DF700020F01E493A3F8E493A34003F68001F202
:100E070008DFF48029E493A3F85407240CC8C333FC
:100E1700C4540F4420C8834004F456800146F6DFCB
:100E2700E4800B010204081020408090086BE47EE8
:100E3700019360BCA3FF543F30E509541FFEE493C0
:100E4700A360010ECF54C025E060A840B8E493A387
:100E5700FAE493A3F8E493A3C8C582C8CAC583CAB2
:100E6700F0A3C8C582C8CAC583CADFE9DEE780BE6A
:0109F70000FF
:10018500E709F608DFFA8046E709F208DFFA803E5C
:1001950088828C83E709F0A3DFFA8032E309F60849
:1001A500DFFA8078E309F208DFFA807088828C83B1
:1001B500E309F0A3DFFA806489828A83E0A3F60865
:1001C500DFFA805889828A83E0A3F208DFFA804C3F
:1001D50080D280FA80C680D4806980F28033801016
:1001E50080A680EA809A80A880DA80E280CA80337F
:1001F50089828A83ECFAE493A3C8C582C8CCC583F7
:10020500CCF0A3C8C582C8CCC583CCDFE9DEE780C6
:100215000D89828A83E493A3F608DFF9ECFAA9F045
:10022500EDFB2289828A83ECFAE0A3C8C582C8CC9B
:10023500C583CCF0A3C8C582C8CCC583CCDFEADEB4
:10024500E880DB89828A83E493A3F208DFF980CC16
:1002550088F0EF60010E4E60C388F0ED2402B4040F
:100265000050B9F582EB2402B4040050AF232345B6
:0602750082239001D57305
:10027B00BB010CE58229F582E5833AF583E0225038
:10028B0006E92582F8E622BBFE06E92582F8E22282
:0D029B00E58229F582E5833AF583E493229C
:1002A800EF8DF0A4A8F0CF8CF0A428CE8DF0A42E6A
:0202B800FE2224
:1002BA00BC000BBE0029EF8DF084FFADF022E4CC28
:1002CA00F875F008EF2FFFEE33FEEC33FCEE9DECF1
:1002DA00984005FCEE9DFE0FD5F0E9E4CEFD22ED37
:1002EA00F8F5F0EE8420D21CFEADF075F008EF2F81
:1002FA00FFED33FD4007985006D5F0F222C398FD72
:05030A000FD5F0EA220E
:10030F00C2D5EC30E709B2D5E4C39DFDE49CFCEE09
:10031F0030E715B2D5E4C39FFFE49EFE1202BAC3C5
:10032F00E49DFDE49CFC80031202BA30D507C3E4C0
:06033F009FFFE49EFE2278
:10034500C5F0F8A3E028F0C5F0F8E5821582700243
:060355001583E038F022E0
:10035B00F8BB0111E58229F582E5833AF583E8F0D4
:10036B00E5F0A3F0225009E92582C8F608A6F02291
:0D037B00BBFE09E92582C8F2E5F008F22278
:10038800E88FF0A4CC8BF0A42CFCE98EF0A42CFC14
:100398008AF0EDA42CFCEA8EF0A4CDA8F08BF0A492
:1003A8002DCC3825F0FDE98FF0A42CCD35F0FCEBF1
:1003B8008EF0A4FEA9F0EB8FF0A4CFC5F02ECD39B6
:0F03C800FEE43CFCEAA42DCE35F0FDE43CFC2223
:1003D70075F008758200EF2FFFEE33FECD33CDCCDD
:1003E70033CCC58233C5829BED9AEC99E582984060
:1003F7000CF582EE9BFEED9AFDEC99FC0FD5F0D63D
:10040700E4CEFBE4CDFAE4CCF9A88222B800C1B966
:100417000059BA002DEC8BF084CFCECDFCE5F0CBA4
:10042700F97818EF2FFFEE33FEED33FDEC33FCEBDD
:1004370033FB10D703994004EB99FB0FD8E5E4F998
:10044700FA227818EF2FFFEE33FEED33FDEC33FC85
:10045700C933C910D7059BE99A4007EC9BFCE99A79
:10046700F90FD8E0E4C9FAE4CCFB2275F010EF2FBE
:10047700FFEE33FEED33FDCC33CCC833C810D707BE
:100487009BEC9AE899400AED9BFDEC9AFCE899F8F9
:0E0497000FD5F0DAE4CDFBE4CCFAE4C8F9228C
:1011B600C2D5E830E70FB2D5E4C39BFBE49AFAE464
:1011C60099F9E498F8EC30E717B2D51211EC12044D
:1011D60013E4C39BFBE49AFAE499F9E498F88003D4
:1011E60012041330D50DE4C39FFFE49EFEE49DFD7B
:0411F600E49CFC2257
:0E04A500C3E49FFFE49EFEE49DFDE49CFC2268
:1004B300E86010ECA2E713FCED13FDEE13FEEF135F
:0404C300FFD8F0224C
:0C04C700ECF0A3EDF0A3EEF0A3EFF022A8
:00000001FF
